{
  "abi": [
    {
      "inputs": [],
      "stateMutability": "nonpayable",
      "type": "constructor"
    },
    {
      "anonymous": false,
      "inputs": [
        {
          "indexed": false,
          "internalType": "uint256",
          "name": "amount",
          "type": "uint256"
        },
        {
          "indexed": false,
          "internalType": "uint256",
          "name": "time",
          "type": "uint256"
        },
        {
          "indexed": false,
          "internalType": "string",
          "name": "name",
          "type": "string"
        },
        {
          "indexed": false,
          "internalType": "string",
          "name": "message",
          "type": "string"
        }
      ],
      "name": "NewMemo",
      "type": "event"
    },
    {
      "inputs": [
        {
          "internalType": "string",
          "name": "name",
          "type": "string"
        },
        {
          "internalType": "string",
          "name": "message",
          "type": "string"
        }
      ],
      "name": "gift",
      "outputs": [],
      "stateMutability": "payable",
      "type": "function"
    },
    {
      "inputs": [
        {
          "internalType": "uint256",
          "name": "",
          "type": "uint256"
        }
      ],
      "name": "memos",
      "outputs": [
        {
          "internalType": "uint256",
          "name": "amount",
          "type": "uint256"
        },
        {
          "internalType": "uint256",
          "name": "time",
          "type": "uint256"
        },
        {
          "internalType": "string",
          "name": "name",
          "type": "string"
        },
        {
          "internalType": "string",
          "name": "message",
          "type": "string"
        }
      ],
      "stateMutability": "view",
      "type": "function"
    },
    {
      "inputs": [],
      "name": "owner",
      "outputs": [
        {
          "internalType": "address payable",
          "name": "",
          "type": "address"
        }
      ],
      "stateMutability": "view",
      "type": "function"
    },
    {
      "inputs": [],
      "name": "withdraw",
      "outputs": [],
      "stateMutability": "nonpayable",
      "type": "function"
    }
  ],
  "bytecode": {
    "object": "0x608060405234801561001057600080fd5b50600080546001600160a01b0319163317905561073f806100326000396000f3fe60806040526004361061003f5760003560e01c80633ccfd60b146100445780636f4796061461005b5780638da5cb5b1461006e578063e8dfdf04146100ab575b600080fd5b34801561005057600080fd5b506100596100db565b005b6100596100693660046104c1565b610172565b34801561007a57600080fd5b5060005461008e906001600160a01b031681565b6040516001600160a01b0390911681526020015b60405180910390f35b3480156100b757600080fd5b506100cb6100c6366004610525565b6102ce565b6040516100a29493929190610584565b6000546001600160a01b031633146101335760405162461bcd60e51b8152602060048201526016602482015275596f7520617265206e6f7420746865206f776e65722160501b60448201526064015b60405180910390fd5b6000805460405147926001600160a01b039092169183156108fc02918491818181858888f1935050505015801561016e573d6000803e3d6000fd5b5050565b600034116101bb5760405162461bcd60e51b8152602060048201526016602482015275506c656173652073656e6420736f6d65206d6f6e657960501b604482015260640161012a565b60408051608081018252348152426020820190815291810184815260608201849052600180548082018255600091909152825160049091027fb10e2d527612073b26eecdfd717e6a320cf44b4afac2b0732d9fcbe2b7fa0cf6810191825593517fb10e2d527612073b26eecdfd717e6a320cf44b4afac2b0732d9fcbe2b7fa0cf78501559051919283927fb10e2d527612073b26eecdfd717e6a320cf44b4afac2b0732d9fcbe2b7fa0cf8909101906102749082610649565b50606082015160038201906102899082610649565b5050507fe59ab92a1a6c4c5690f5bed5956bdaa98bdc54826c05e4a1676683728fbb86d8344285856040516102c19493929190610584565b60405180910390a1505050565b600181815481106102de57600080fd5b906000526020600020906004020160009150905080600001549080600101549080600201805461030d906105c0565b80601f0160208091040260200160405190810160405280929190818152602001828054610339906105c0565b80156103865780601f1061035b57610100808354040283529160200191610386565b820191906000526020600020905b81548152906001019060200180831161036957829003601f168201915b50505050509080600301805461039b906105c0565b80601f01602080910402602001604051908101604052809291908181526020018280546103c7906105c0565b80156104145780601f106103e957610100808354040283529160200191610414565b820191906000526020600020905b8154815290600101906020018083116103f757829003601f168201915b5050505050905084565b634e487b7160e01b600052604160045260246000fd5b600082601f83011261044557600080fd5b813567ffffffffffffffff808211156104605761046061041e565b604051601f8301601f19908116603f011681019082821181831017156104885761048861041e565b816040528381528660208588010111156104a157600080fd5b836020870160208301376000602085830101528094505050505092915050565b600080604083850312156104d457600080fd5b823567ffffffffffffffff808211156104ec57600080fd5b6104f886838701610434565b9350602085013591508082111561050e57600080fd5b5061051b85828601610434565b9150509250929050565b60006020828403121561053757600080fd5b5035919050565b6000815180845260005b8181101561056457602081850181015186830182015201610548565b506000602082860101526020601f19601f83011685010191505092915050565b8481528360208201526080604082015260006105a3608083018561053e565b82810360608401526105b5818561053e565b979650505050505050565b600181811c908216806105d457607f821691505b6020821081036105f457634e487b7160e01b600052602260045260246000fd5b50919050565b601f82111561064457600081815260208120601f850160051c810160208610156106215750805b601f850160051c820191505b818110156106405782815560010161062d565b5050505b505050565b815167ffffffffffffffff8111156106635761066361041e565b6106778161067184546105c0565b846105fa565b602080601f8311600181146106ac57600084156106945750858301515b600019600386901b1c1916600185901b178555610640565b600085815260208120601f198616915b828110156106db578886015182559484019460019091019084016106bc565b50858210156106f95787850151600019600388901b60f8161c191681555b5050505050600190811b0190555056fea2646970667358221220017d735c578492a54072e89e85bdbd37094bdaec4271af9c3e6a36da9b8b128b64736f6c63430008130033",
    "linkReferences": {}
  },
  "methodIdentifiers": {
    "gift(string,string)": "6f479606",
    "memos(uint256)": "e8dfdf04",
    "owner()": "8da5cb5b",
    "withdraw()": "3ccfd60b"
  },
  "id": 0
}